{
  "_format": "hh-sol-artifact-1",
  "contractName": "Crowdfunding2",
  "sourceName": "contracts/Crowdfunding2.sol",
  "abi": [
    {
      "anonymous": false,
      "inputs": [
        {
          "indexed": false,
          "internalType": "uint256",
          "name": "milestoneId",
          "type": "uint256"
        },
        {
          "indexed": false,
          "internalType": "string",
          "name": "documentURL",
          "type": "string"
        },
        {
          "indexed": false,
          "internalType": "string",
          "name": "status",
          "type": "string"
        }
      ],
      "name": "MilestoneDocumentUpdated",
      "type": "event"
    },
    {
      "inputs": [
        {
          "internalType": "uint256",
          "name": "",
          "type": "uint256"
        }
      ],
      "name": "campaigns",
      "outputs": [
        {
          "internalType": "uint256",
          "name": "id",
          "type": "uint256"
        },
        {
          "internalType": "address",
          "name": "owner",
          "type": "address"
        },
        {
          "internalType": "string",
          "name": "title",
          "type": "string"
        },
        {
          "internalType": "string",
          "name": "description",
          "type": "string"
        },
        {
          "internalType": "uint256",
          "name": "target",
          "type": "uint256"
        },
        {
          "internalType": "uint256",
          "name": "amountCollected",
          "type": "uint256"
        },
        {
          "internalType": "string",
          "name": "images",
          "type": "string"
        },
        {
          "internalType": "bytes",
          "name": "proof",
          "type": "bytes"
        },
        {
          "internalType": "string",
          "name": "nullifierHash",
          "type": "string"
        }
      ],
      "stateMutability": "view",
      "type": "function"
    },
    {
      "inputs": [
        {
          "internalType": "string",
          "name": "_title",
          "type": "string"
        },
        {
          "internalType": "string",
          "name": "_description",
          "type": "string"
        },
        {
          "internalType": "uint256",
          "name": "_target",
          "type": "uint256"
        },
        {
          "internalType": "string",
          "name": "_images",
          "type": "string"
        },
        {
          "components": [
            {
              "internalType": "uint256",
              "name": "id",
              "type": "uint256"
            },
            {
              "internalType": "uint256",
              "name": "campaignId",
              "type": "uint256"
            },
            {
              "internalType": "string",
              "name": "milestonetitle",
              "type": "string"
            },
            {
              "internalType": "string",
              "name": "milestonedescription",
              "type": "string"
            },
            {
              "internalType": "uint256",
              "name": "donationAmountCollected",
              "type": "uint256"
            },
            {
              "internalType": "uint256",
              "name": "targetAmt",
              "type": "uint256"
            },
            {
              "internalType": "uint256",
              "name": "startDate",
              "type": "uint256"
            },
            {
              "internalType": "uint256",
              "name": "endDate",
              "type": "uint256"
            },
            {
              "internalType": "string",
              "name": "status",
              "type": "string"
            },
            {
              "internalType": "bool",
              "name": "isFraud",
              "type": "bool"
            },
            {
              "internalType": "string",
              "name": "documentURL",
              "type": "string"
            }
          ],
          "internalType": "struct Crowdfunding2.Milestone[]",
          "name": "_milestones",
          "type": "tuple[]"
        },
        {
          "internalType": "bytes",
          "name": "_proof",
          "type": "bytes"
        },
        {
          "internalType": "string",
          "name": "_nullifierHash",
          "type": "string"
        }
      ],
      "name": "createCampaign",
      "outputs": [
        {
          "internalType": "uint256",
          "name": "",
          "type": "uint256"
        }
      ],
      "stateMutability": "nonpayable",
      "type": "function"
    },
    {
      "inputs": [
        {
          "internalType": "uint256",
          "name": "_campaignId",
          "type": "uint256"
        },
        {
          "internalType": "uint256",
          "name": "_milestoneId",
          "type": "uint256"
        },
        {
          "internalType": "uint256",
          "name": "_customTimestamp",
          "type": "uint256"
        },
        {
          "internalType": "bytes",
          "name": "_proof",
          "type": "bytes"
        },
        {
          "internalType": "string",
          "name": "_nullifierHash",
          "type": "string"
        }
      ],
      "name": "donateToMilestone",
      "outputs": [],
      "stateMutability": "payable",
      "type": "function"
    },
    {
      "inputs": [],
      "name": "getCampaigns",
      "outputs": [
        {
          "components": [
            {
              "internalType": "uint256",
              "name": "id",
              "type": "uint256"
            },
            {
              "internalType": "address",
              "name": "owner",
              "type": "address"
            },
            {
              "internalType": "string",
              "name": "title",
              "type": "string"
            },
            {
              "internalType": "string",
              "name": "description",
              "type": "string"
            },
            {
              "internalType": "uint256",
              "name": "target",
              "type": "uint256"
            },
            {
              "internalType": "uint256",
              "name": "amountCollected",
              "type": "uint256"
            },
            {
              "internalType": "string",
              "name": "images",
              "type": "string"
            },
            {
              "internalType": "uint256[]",
              "name": "milestoneIds",
              "type": "uint256[]"
            },
            {
              "internalType": "address[]",
              "name": "donators",
              "type": "address[]"
            },
            {
              "internalType": "uint256[]",
              "name": "donations",
              "type": "uint256[]"
            },
            {
              "components": [
                {
                  "internalType": "address",
                  "name": "donator",
                  "type": "address"
                },
                {
                  "internalType": "uint256",
                  "name": "amount",
                  "type": "uint256"
                },
                {
                  "internalType": "uint256",
                  "name": "timestamp",
                  "type": "uint256"
                },
                {
                  "internalType": "uint256",
                  "name": "milestoneId",
                  "type": "uint256"
                },
                {
                  "internalType": "bytes",
                  "name": "proof",
                  "type": "bytes"
                },
                {
                  "internalType": "string",
                  "name": "nullifierHash",
                  "type": "string"
                }
              ],
              "internalType": "struct Crowdfunding2.Transactions[]",
              "name": "transactions",
              "type": "tuple[]"
            },
            {
              "internalType": "bytes",
              "name": "proof",
              "type": "bytes"
            },
            {
              "internalType": "string",
              "name": "nullifierHash",
              "type": "string"
            }
          ],
          "internalType": "struct Crowdfunding2.Campaign[]",
          "name": "",
          "type": "tuple[]"
        }
      ],
      "stateMutability": "view",
      "type": "function"
    },
    {
      "inputs": [
        {
          "internalType": "uint256",
          "name": "_campaignId",
          "type": "uint256"
        }
      ],
      "name": "getMilestones",
      "outputs": [
        {
          "components": [
            {
              "internalType": "uint256",
              "name": "id",
              "type": "uint256"
            },
            {
              "internalType": "uint256",
              "name": "campaignId",
              "type": "uint256"
            },
            {
              "internalType": "string",
              "name": "milestonetitle",
              "type": "string"
            },
            {
              "internalType": "string",
              "name": "milestonedescription",
              "type": "string"
            },
            {
              "internalType": "uint256",
              "name": "donationAmountCollected",
              "type": "uint256"
            },
            {
              "internalType": "uint256",
              "name": "targetAmt",
              "type": "uint256"
            },
            {
              "internalType": "uint256",
              "name": "startDate",
              "type": "uint256"
            },
            {
              "internalType": "uint256",
              "name": "endDate",
              "type": "uint256"
            },
            {
              "internalType": "string",
              "name": "status",
              "type": "string"
            },
            {
              "internalType": "bool",
              "name": "isFraud",
              "type": "bool"
            },
            {
              "internalType": "string",
              "name": "documentURL",
              "type": "string"
            }
          ],
          "internalType": "struct Crowdfunding2.Milestone[]",
          "name": "",
          "type": "tuple[]"
        }
      ],
      "stateMutability": "view",
      "type": "function"
    },
    {
      "inputs": [
        {
          "internalType": "uint256",
          "name": "",
          "type": "uint256"
        }
      ],
      "name": "milestones",
      "outputs": [
        {
          "internalType": "uint256",
          "name": "id",
          "type": "uint256"
        },
        {
          "internalType": "uint256",
          "name": "campaignId",
          "type": "uint256"
        },
        {
          "internalType": "string",
          "name": "milestonetitle",
          "type": "string"
        },
        {
          "internalType": "string",
          "name": "milestonedescription",
          "type": "string"
        },
        {
          "internalType": "uint256",
          "name": "donationAmountCollected",
          "type": "uint256"
        },
        {
          "internalType": "uint256",
          "name": "targetAmt",
          "type": "uint256"
        },
        {
          "internalType": "uint256",
          "name": "startDate",
          "type": "uint256"
        },
        {
          "internalType": "uint256",
          "name": "endDate",
          "type": "uint256"
        },
        {
          "internalType": "string",
          "name": "status",
          "type": "string"
        },
        {
          "internalType": "bool",
          "name": "isFraud",
          "type": "bool"
        },
        {
          "internalType": "string",
          "name": "documentURL",
          "type": "string"
        }
      ],
      "stateMutability": "view",
      "type": "function"
    },
    {
      "inputs": [],
      "name": "numberOfCampaigns",
      "outputs": [
        {
          "internalType": "uint256",
          "name": "",
          "type": "uint256"
        }
      ],
      "stateMutability": "view",
      "type": "function"
    },
    {
      "inputs": [],
      "name": "numberOfMilestones",
      "outputs": [
        {
          "internalType": "uint256",
          "name": "",
          "type": "uint256"
        }
      ],
      "stateMutability": "view",
      "type": "function"
    },
    {
      "inputs": [
        {
          "internalType": "uint256",
          "name": "_milestoneId",
          "type": "uint256"
        },
        {
          "internalType": "string",
          "name": "_documentURL",
          "type": "string"
        }
      ],
      "name": "updateMilestoneDocument",
      "outputs": [],
      "stateMutability": "nonpayable",
      "type": "function"
    },
    {
      "inputs": [
        {
          "internalType": "string",
          "name": "",
          "type": "string"
        }
      ],
      "name": "usedNullifierHashes",
      "outputs": [
        {
          "internalType": "bool",
          "name": "",
          "type": "bool"
        }
      ],
      "stateMutability": "view",
      "type": "function"
    }
  ],
  "bytecode": "0x60806040526000600355600060045534801561001a57600080fd5b506127698061002a6000396000f3fe6080604052600436106100915760003560e01c8063a6b0363311610059578063a6b0363314610156578063b64fc3dd14610178578063b9cbc20a14610198578063c81196da146101e3578063e89e4ed6146101f957600080fd5b806307ca140d14610096578063141961bc146100bf5780632ad0e16a146100f457806342c549c014610109578063714bdd8b14610136575b600080fd5b3480156100a257600080fd5b506100ac60035481565b6040519081526020015b60405180910390f35b3480156100cb57600080fd5b506100df6100da366004611a93565b610230565b6040516100b699989796959493929190611af2565b610107610102366004611c6b565b610529565b005b34801561011557600080fd5b50610129610124366004611a93565b610821565b6040516100b69190611cec565b34801561014257600080fd5b506100ac610151366004611fbb565b610c46565b34801561016257600080fd5b5061016b610efa565b6040516100b691906121e0565b34801561018457600080fd5b50610107610193366004612352565b6115f7565b3480156101a457600080fd5b506101d36101b3366004612399565b805160208183018101805160028252928201919093012091525460ff1681565b60405190151581526020016100b6565b3480156101ef57600080fd5b506100ac60045481565b34801561020557600080fd5b50610219610214366004611a93565b611816565b6040516100b69b9a999897969594939291906123d6565b60006020819052908152604090208054600182015460028301805492936001600160a01b039092169261026290612467565b80601f016020809104026020016040519081016040528092919081815260200182805461028e90612467565b80156102db5780601f106102b0576101008083540402835291602001916102db565b820191906000526020600020905b8154815290600101906020018083116102be57829003601f168201915b5050505050908060030180546102f090612467565b80601f016020809104026020016040519081016040528092919081815260200182805461031c90612467565b80156103695780601f1061033e57610100808354040283529160200191610369565b820191906000526020600020905b81548152906001019060200180831161034c57829003601f168201915b50505050509080600401549080600501549080600601805461038a90612467565b80601f01602080910402602001604051908101604052809291908181526020018280546103b690612467565b80156104035780601f106103d857610100808354040283529160200191610403565b820191906000526020600020905b8154815290600101906020018083116103e657829003601f168201915b50505050509080600b01805461041890612467565b80601f016020809104026020016040519081016040528092919081815260200182805461044490612467565b80156104915780601f1061046657610100808354040283529160200191610491565b820191906000526020600020905b81548152906001019060200180831161047457829003601f168201915b50505050509080600c0180546104a690612467565b80601f01602080910402602001604051908101604052809291908181526020018280546104d290612467565b801561051f5780601f106104f45761010080835404028352916020019161051f565b820191906000526020600020905b81548152906001019060200180831161050257829003601f168201915b5050505050905089565b60035485106105795760405162461bcd60e51b815260206004820152601760248201527610d85b5c185a59db88191bd95cc81b9bdd08195e1a5cdd604a1b60448201526064015b60405180910390fd5b60045484106105c55760405162461bcd60e51b8152602060048201526018602482015277135a5b195cdd1bdb9948191bd95cc81b9bdd08195e1a5cdd60421b6044820152606401610570565b600034116106275760405162461bcd60e51b815260206004820152602960248201527f446f6e6174696f6e20616d6f756e74206d7573742062652067726561746572206044820152687468616e207a65726f60b81b6064820152608401610570565b60008581526020818152604080832087845260019283905292209081015487146106a55760405162461bcd60e51b815260206004820152602960248201527f4d696c6573746f6e6520646f6573206e6f742062656c6f6e6720746f207468656044820152681031b0b6b830b4b3b760b91b6064820152608401610570565b600085156106b357856106b5565b425b9050348360050160008282546106cb91906124b1565b92505081905550348260040160008282546106e691906124b1565b909155505060058201546004830154106107295760408051808201909152600781526670656e64696e6760c81b602082015260088301906107279082612519565b505b6040805160c081018252338152346020808301918252928201848152606083018b8152608084018a815260a085018a9052600a8901805460018082018355600092835297909120865160069092020180546001600160a01b0319166001600160a01b0390921691909117815593519584019590955590516002830155516003820155915190919060048201906107bf9082612519565b5060a082015160058201906107d49082612519565b505050600883018054600181810183556000928352602080842090920180546001600160a01b03191633179055600990950180549586018155825290203493019290925550505050505050565b60008181526020818152604080832060070180548251818502810185019093528083526060949383018282801561087757602002820191906000526020600020905b815481526020019060010190808311610863575b505050505090506000815167ffffffffffffffff81111561089a5761089a611b8a565b60405190808252806020026020018201604052801561092a57816020015b610917604051806101600160405280600081526020016000815260200160608152602001606081526020016000815260200160008152602001600081526020016000815260200160608152602001600015158152602001606081525090565b8152602001906001900390816108b85790505b50905060005b8251811015610c3e57600060016000858481518110610951576109516125d9565b6020026020010151815260200190815260200160002090508060405180610160016040529081600082015481526020016001820154815260200160028201805461099a90612467565b80601f01602080910402602001604051908101604052809291908181526020018280546109c690612467565b8015610a135780601f106109e857610100808354040283529160200191610a13565b820191906000526020600020905b8154815290600101906020018083116109f657829003601f168201915b50505050508152602001600382018054610a2c90612467565b80601f0160208091040260200160405190810160405280929190818152602001828054610a5890612467565b8015610aa55780601f10610a7a57610100808354040283529160200191610aa5565b820191906000526020600020905b815481529060010190602001808311610a8857829003601f168201915b5050505050815260200160048201548152602001600582015481526020016006820154815260200160078201548152602001600882018054610ae690612467565b80601f0160208091040260200160405190810160405280929190818152602001828054610b1290612467565b8015610b5f5780601f10610b3457610100808354040283529160200191610b5f565b820191906000526020600020905b815481529060010190602001808311610b4257829003601f168201915b5050509183525050600982015460ff1615156020820152600a82018054604090920191610b8b90612467565b80601f0160208091040260200160405190810160405280929190818152602001828054610bb790612467565b8015610c045780601f10610bd957610100808354040283529160200191610c04565b820191906000526020600020905b815481529060010190602001808311610be757829003601f168201915b505050505081525050838381518110610c1f57610c1f6125d9565b6020026020010181905250508080610c36906125ef565b915050610930565b509392505050565b60035460008181526020819052604081209182556001820180546001600160a01b031916331790559060028101610c7d8a82612519565b5060038101610c8c8982612519565b50600481018790556000600582015560068101610ca98782612519565b50600b8101610cb88582612519565b50600c8101610cc78482612519565b5060005b8551811015610ec8576004546000818152600160208190526040909120918255600354908201558651879083908110610d0657610d066125d9565b602002602001015160400151816002019081610d229190612519565b50868281518110610d3557610d356125d9565b602002602001015160600151816003019081610d519190612519565b50868281518110610d6457610d646125d9565b602002602001015160a001518160050181905550868281518110610d8a57610d8a6125d9565b602002602001015160c001518160060181905550868281518110610db057610db06125d9565b602002602001015160e001518160070181905550868281518110610dd657610dd66125d9565b6020026020010151608001518160040181905550868281518110610dfc57610dfc6125d9565b60200260200101516101000151816008019081610e199190612519565b50868281518110610e2c57610e2c6125d9565b602002602001015161012001518160090160006101000a81548160ff021916908315150217905550868281518110610e6657610e666125d9565b6020026020010151610140015181600a019081610e839190612519565b5060048054600785018054600181018255600091825260208220019190915581549190610eaf836125ef565b9190505550508080610ec0906125ef565b915050610ccb565b5060038054906000610ed9836125ef565b91905055506001600354610eed9190612608565b9998505050505050505050565b6060600060035467ffffffffffffffff811115610f1957610f19611b8a565b604051908082528060200260200182016040528015610fbe57816020015b610fab604051806101a001604052806000815260200160006001600160a01b0316815260200160608152602001606081526020016000815260200160008152602001606081526020016060815260200160608152602001606081526020016060815260200160608152602001606081525090565b815260200190600190039081610f375790505b50905060005b6003548110156115f1576000818152602081815260409182902082516101a0810184528154815260018201546001600160a01b03169281019290925260028101805491938492908401919061101890612467565b80601f016020809104026020016040519081016040528092919081815260200182805461104490612467565b80156110915780601f1061106657610100808354040283529160200191611091565b820191906000526020600020905b81548152906001019060200180831161107457829003601f168201915b505050505081526020016003820180546110aa90612467565b80601f01602080910402602001604051908101604052809291908181526020018280546110d690612467565b80156111235780601f106110f857610100808354040283529160200191611123565b820191906000526020600020905b81548152906001019060200180831161110657829003601f168201915b50505050508152602001600482015481526020016005820154815260200160068201805461115090612467565b80601f016020809104026020016040519081016040528092919081815260200182805461117c90612467565b80156111c95780601f1061119e576101008083540402835291602001916111c9565b820191906000526020600020905b8154815290600101906020018083116111ac57829003601f168201915b505050505081526020016007820180548060200260200160405190810160405280929190818152602001828054801561122157602002820191906000526020600020905b81548152602001906001019080831161120d575b505050505081526020016008820180548060200260200160405190810160405280929190818152602001828054801561128357602002820191906000526020600020905b81546001600160a01b03168152600190910190602001808311611265575b50505050508152602001600982018054806020026020016040519081016040528092919081815260200182805480156112db57602002820191906000526020600020905b8154815260200190600101908083116112c7575b50505050508152602001600a8201805480602002602001604051908101604052809291908181526020016000905b828210156114945760008481526020908190206040805160c0810182526006860290920180546001600160a01b031683526001810154938301939093526002830154908201526003820154606082015260048201805491929160808401919061137190612467565b80601f016020809104026020016040519081016040528092919081815260200182805461139d90612467565b80156113ea5780601f106113bf576101008083540402835291602001916113ea565b820191906000526020600020905b8154815290600101906020018083116113cd57829003601f168201915b5050505050815260200160058201805461140390612467565b80601f016020809104026020016040519081016040528092919081815260200182805461142f90612467565b801561147c5780601f106114515761010080835404028352916020019161147c565b820191906000526020600020905b81548152906001019060200180831161145f57829003601f168201915b50505050508152505081526020019060010190611309565b505050508152602001600b820180546114ac90612467565b80601f01602080910402602001604051908101604052809291908181526020018280546114d890612467565b80156115255780601f106114fa57610100808354040283529160200191611525565b820191906000526020600020905b81548152906001019060200180831161150857829003601f168201915b50505050508152602001600c8201805461153e90612467565b80601f016020809104026020016040519081016040528092919081815260200182805461156a90612467565b80156115b75780601f1061158c576101008083540402835291602001916115b7565b820191906000526020600020905b81548152906001019060200180831161159a57829003601f168201915b5050505050815250508383815181106115d2576115d26125d9565b60200260200101819052505080806115e9906125ef565b915050610fc4565b50919050565b60045482106116435760405162461bcd60e51b8152602060048201526018602482015277135a5b195cdd1bdb9948191bd95cc81b9bdd08195e1a5cdd60421b6044820152606401610570565b60035460008381526001602081905260409091200154106116a05760405162461bcd60e51b815260206004820152601760248201527610d85b5c185a59db88191bd95cc81b9bdd08195e1a5cdd604a1b6044820152606401610570565b600082815260016020818152604080842083015484529083905290912001546001600160a01b031633146117275760405162461bcd60e51b815260206004820152602860248201527f4f6e6c792063616d706169676e206f776e65722063616e20757064617465206d604482015267696c6573746f6e6560c01b6064820152608401610570565b6000828152600160205260409020600a81016117438382612519565b50604080518082018252600981526818dbdb5c1b195d195960ba1b602090910152517f6216ba39af4188a6d7c765710d7e6075007c3444b59a22a973d1b958c43e60bb9061179590600884019061261b565b6040518091039020146117d35760408051808201909152600981526818dbdb5c1b195d195960ba1b602082015260088201906117d19082612519565b505b7f566323dad72faf713e37fa4bf2cf7c2277e11373ac6cdf89f75c0869815b03b483838360080160405161180993929190612691565b60405180910390a1505050565b600160208190526000918252604090912080549181015460028201805491929161183f90612467565b80601f016020809104026020016040519081016040528092919081815260200182805461186b90612467565b80156118b85780601f1061188d576101008083540402835291602001916118b8565b820191906000526020600020905b81548152906001019060200180831161189b57829003601f168201915b5050505050908060030180546118cd90612467565b80601f01602080910402602001604051908101604052809291908181526020018280546118f990612467565b80156119465780601f1061191b57610100808354040283529160200191611946565b820191906000526020600020905b81548152906001019060200180831161192957829003601f168201915b50505050509080600401549080600501549080600601549080600701549080600801805461197390612467565b80601f016020809104026020016040519081016040528092919081815260200182805461199f90612467565b80156119ec5780601f106119c1576101008083540402835291602001916119ec565b820191906000526020600020905b8154815290600101906020018083116119cf57829003601f168201915b5050506009840154600a85018054949560ff909216949193509150611a1090612467565b80601f0160208091040260200160405190810160405280929190818152602001828054611a3c90612467565b8015611a895780601f10611a5e57610100808354040283529160200191611a89565b820191906000526020600020905b815481529060010190602001808311611a6c57829003601f168201915b505050505090508b565b600060208284031215611aa557600080fd5b5035919050565b6000815180845260005b81811015611ad257602081850181015186830182015201611ab6565b506000602082860101526020601f19601f83011685010191505092915050565b8981526001600160a01b038916602082015261012060408201819052600090611b1d8382018b611aac565b90508281036060840152611b31818a611aac565b90508760808401528660a084015282810360c0840152611b518187611aac565b905082810360e0840152611b658186611aac565b9050828103610100840152611b7a8185611aac565b9c9b505050505050505050505050565b634e487b7160e01b600052604160045260246000fd5b604051610160810167ffffffffffffffff81118282101715611bc457611bc4611b8a565b60405290565b604051601f8201601f1916810167ffffffffffffffff81118282101715611bf357611bf3611b8a565b604052919050565b600082601f830112611c0c57600080fd5b813567ffffffffffffffff811115611c2657611c26611b8a565b611c39601f8201601f1916602001611bca565b818152846020838601011115611c4e57600080fd5b816020850160208301376000918101602001919091529392505050565b600080600080600060a08688031215611c8357600080fd5b853594506020860135935060408601359250606086013567ffffffffffffffff80821115611cb057600080fd5b611cbc89838a01611bfb565b93506080880135915080821115611cd257600080fd5b50611cdf88828901611bfb565b9150509295509295909350565b60006020808301818452808551808352604092508286019150828160051b87010184880160005b83811015611df457603f198984030185528151610160815185528882015189860152878201518189870152611d4a82870182611aac565b91505060608083015186830382880152611d648382611aac565b6080858101519089015260a0808601519089015260c0808601519089015260e0808601519089015261010080860151898303828b015291945092509050611dab8382611aac565b9250505061012080830151611dc38288018215159052565b50506101408083015192508582038187015250611de08183611aac565b968901969450505090860190600101611d13565b509098975050505050505050565b80358015158114611e1257600080fd5b919050565b600082601f830112611e2857600080fd5b8135602067ffffffffffffffff80831115611e4557611e45611b8a565b8260051b611e54838201611bca565b9384528581018301938381019088861115611e6e57600080fd5b84880192505b85831015611faf57823584811115611e8c5760008081fd5b8801610160818b03601f1901811315611ea55760008081fd5b611ead611ba0565b8783013581526040808401358983015260608085013589811115611ed15760008081fd5b611edf8f8c83890101611bfb565b8385015250608091508185013589811115611efa5760008081fd5b611f088f8c83890101611bfb565b82850152505060a0808501358284015260c0915081850135818401525060e0808501358284015261010091508185013581840152506101208085013589811115611f525760008081fd5b611f608f8c83890101611bfb565b83850152506101409150611f75828601611e02565b90830152918301359187831115611f8c5760008081fd5b611f9a8d8a85870101611bfb565b90820152845250509184019190840190611e74565b98975050505050505050565b600080600080600080600060e0888a031215611fd657600080fd5b873567ffffffffffffffff80821115611fee57600080fd5b611ffa8b838c01611bfb565b985060208a013591508082111561201057600080fd5b61201c8b838c01611bfb565b975060408a0135965060608a013591508082111561203957600080fd5b6120458b838c01611bfb565b955060808a013591508082111561205b57600080fd5b6120678b838c01611e17565b945060a08a013591508082111561207d57600080fd5b6120898b838c01611bfb565b935060c08a013591508082111561209f57600080fd5b506120ac8a828b01611bfb565b91505092959891949750929550565b600081518084526020808501945080840160005b838110156120eb578151875295820195908201906001016120cf565b509495945050505050565b600081518084526020808501945080840160005b838110156120eb5781516001600160a01b03168752958201959082019060010161210a565b600081518084526020808501808196508360051b8101915082860160005b858110156121d3578284038952815180516001600160a01b031685528581015186860152604080820151908601526060808201519086015260808082015160c082880181905291906121a183890182611aac565b9250505060a080830151925086820381880152506121bf8183611aac565b9a87019a955050509084019060010161214d565b5091979650505050505050565b60006020808301818452808551808352604092508286019150828160051b87010184880160005b83811015611df457603f19898403018552815180518452878101516001600160a01b031688850152868101516101a08886018190529061224982870182611aac565b915050606080830151868303828801526122638382611aac565b92505050608080830151818701525060a080830151818701525060c080830151868303828801526122948382611aac565b9250505060e080830151868303828801526122af83826120bb565b9250505061010080830151868303828801526122cb83826120f6565b9250505061012080830151868303828801526122e783826120bb565b925050506101408083015186830382880152612303838261212f565b92505050610160808301518683038288015261231f8382611aac565b92505050610180808301519250858203818701525061233e8183611aac565b968901969450505090860190600101612207565b6000806040838503121561236557600080fd5b82359150602083013567ffffffffffffffff81111561238357600080fd5b61238f85828601611bfb565b9150509250929050565b6000602082840312156123ab57600080fd5b813567ffffffffffffffff8111156123c257600080fd5b6123ce84828501611bfb565b949350505050565b60006101608d83528c60208401528060408401526123f68184018d611aac565b9050828103606084015261240a818c611aac565b90508960808401528860a08401528760c08401528660e08401528281036101008401526124378187611aac565b90508415156101208401528281036101408401526124558185611aac565b9e9d5050505050505050505050505050565b600181811c9082168061247b57607f821691505b6020821081036115f157634e487b7160e01b600052602260045260246000fd5b634e487b7160e01b600052601160045260246000fd5b808201808211156124c4576124c461249b565b92915050565b601f82111561251457600081815260208120601f850160051c810160208610156124f15750805b601f850160051c820191505b81811015612510578281556001016124fd565b5050505b505050565b815167ffffffffffffffff81111561253357612533611b8a565b612547816125418454612467565b846124ca565b602080601f83116001811461257c57600084156125645750858301515b600019600386901b1c1916600185901b178555612510565b600085815260208120601f198616915b828110156125ab5788860151825594840194600190910190840161258c565b50858210156125c95787850151600019600388901b60f8161c191681555b5050505050600190811b01905550565b634e487b7160e01b600052603260045260246000fd5b6000600182016126015761260161249b565b5060010190565b818103818111156124c4576124c461249b565b600080835461262981612467565b60018281168015612641576001811461265657612685565b60ff1984168752821515830287019450612685565b8760005260208060002060005b8581101561267c5781548a820152908401908201612663565b50505082870194505b50929695505050505050565b838152600060206060818401526126ab6060840186611aac565b8381036040850152600085546126c081612467565b808452600182811680156126db57600181146126f557612723565b60ff1984168688015282151560051b860187019450612723565b896000528660002060005b8481101561271b5781548882018a0152908301908801612700565b870188019550505b50929a995050505050505050505056fea2646970667358221220b7c4aae94f50c1b9db5fad91d845c31b96b9a699f8b318a47c7dd56fda3abf2f64736f6c63430008110033",
  "linkReferences": {},
  "deployedLinkReferences": {}
}